:020000040800F2
:1000000040130020D145000895440008974400089B
:10001000994400089B4400089D440008000000002B
:100020000000000000000000000000009F440008E5
:10003000A144000800000000A3440008A5440008F3
:10004000E9450008ED450008F1450008F5450008C0
:10005000F9450008FD45000801460008A9440008CC
:1000600005460008094600080D460008114600082C
:1000700015460008194600081D46000821460008DC
:1000800025460008294600082D460008314600088C
:1000900035460008394600083D460008414600083C
:1000A00045460008494600084D46000851460008EC
:1000B000AF440008B54400085546000859460008FA
:1000C0005D4600086146000865460008694600086C
:1000D0006D460008BB44000871460008C144000892
:1000E00075460008794600087D4600082DE9F14F65
:1000F000B0B0924604910DF142013A9A2B91994683
:100100004A7000200AE01AF8011B0498309A9047C0
:100110000028049000F06B860D98401C0D909AF812
:10012000000050B12528EED100210022079108924D
:1001300009910A920B910C9204E00D9800F059BEBF
:1001400041F001011AF8010F2028F9D023280CD022
:100150002B2804D02D2805D0302809D00BE041F001
:100160000201EFE741F00401ECE741F00801E9E7A3
:1001700041F01001E6E72A280FD1D9F8002052F803
:10018000040BC9F8002000280F9003D540420F90BF
:1001900041F004010AF1010A14E00F92DFF8583C23
:1001A0000AE00F98984205DA00EB800402EB440263
:1001B000303A0F920AF1010A9AF80020A2F13000B9
:1001C0000A28EED39AF800002E2803D04FF0FF3211
:1001D0000E9229E01AF8010F2A2809D1D9F8000057
:1001E00050F8042BC9F800000E920AF1010A1BE036
:1001F0002D280CBF0AF1010A002000220E92DFF820
:10020000F84B0BE040B90E9AA24205DA02EB8205E8
:1002100003EB4503303B0E930AF1010A9AF80030D4
:10022000A3F130020A2AEDD3ADF840100FF6CC301E
:100230009AF8001000F006FF08B11AF8010B8DF8CB
:1002400042009DF84200682805D19AF8000068280D
:100250000CD1622106E06C2804BF9AF800006C28DB
:1002600004D171218DF842100AF1010A12A80690FA
:100270001AF801BBBBF125012CD01C3900F0D78145
:10028000091F022940F2D381133900F0E2840939B1
:1002900000F0CD81891E00F07785491E00F024858D
:1002A000491E022940F2C381091F00F01D85491F24
:1002B00000F03281491E00F0CC84491E00F0D88045
:1002C000C91E0DD0891E00F0C484C91E00F0C1846F
:1002D00000F065BD25238DF84830012100F06ABD8E
:1002E000D9F8000050F8044BC9F80000002C059420
:1002F00040F0AB802B994878002800F0A1804FF0A7
:10030000FF340FF6003000F0ADFE201A40F06F858C
:1003100000F051BD01236A4602A9304600F042FEBA
:10032000002840F064856D1EF4D13096079D12AF11
:1003300075B1309E17F8012B02A9304600F022FE5D
:10034000002801D46D1EF5D10028309640F04F856D
:100350000A9D3020002D8DF800000CDD309E012319
:100360006A4602A9304600F01DFE002840F03F8595
:100370006D1EF4D13096059F089D75B1309E17F81B
:10038000012B02A9304600F0FDFD002801D46D1EAE
:10039000F5D10028309640F02A850B9D3020002DA5
:1003A0008DF800000CDD309E01236A4602A930461C
:1003B00000F0F8FD002840F01A856D1EF4D130964B
:1003C00005980899099D471875B1309E17F8012BBB
:1003D00002A9304600F0D6FD002801D46D1EF5D1EB
:1003E0000028309640F003850C9D3020002D8DF8BC
:1003F00000000CDD309E01236A4602A9304600F061
:10040000D1FD002840F0F3846D1EF4D130969DF8A4
:10041000400041077FF583AE2020002C8DF80000BE
:100420007FF77DAE309D01236A4602A9284600F081
:10043000B9FD002840F0DB84641EF4D130956EE6EF
:100440000FF6C030059000F0B6BC0E9D002D04D50F
:10045000204600F027FE044607E02A46204600F02A
:100460002BFE002814BF041B2C46089400F0A3BCEC
:10047000D9F8001051F8040BC9F8001020F000045E
:10048000002121F0FF3512ABCDE902450593DDE9EE
:10049000022306993C2413B90AB90E98A8B102F0B8
:1004A0000F053035641EEEB23A2E08DA120942EA20
:1004B00003721B090D5508BF002A02D105E027353C
:1004C000F4E705980D19A842E9D308190590C4F17D
:1004D0003C020E98089282420ADABDF84010821A55
:1004E0004FF6EF7001400A92ADF8401000F063BC87
:1004F000002840F160849DF8400000F014001028AE
:1005000040F059840F9B07990A985B1A1B1A9A1A94
:10051000002A40F350849AE32B99487820B14FF099
:10052000FF340FF6B020EEE69DF84200622860D05E
:10053000682817D06A283FD06C2806D0712847D089
:1005400074282CD07A281DD062E0D9F8001051F818
:10055000040BC9F80010002866D14FF0FF340FF6E5
:100560008C20D0E6D9F8001051F8040BC9F800101F
:1005700020B94FF0FF340FF67420C4E60D990180C6
:1005800000F019BCD9F8001051F8040BC9F800109C
:10059000002849D14FF0FF340FF65020B3E6D9F8C8
:1005A000001051F8040BC9F8001000283CD14FF09E
:1005B000FF340FF63820A6E6D9F8001051F8040BE6
:1005C000C9F8001080B94FF0FF340FF620209AE6EA
:1005D000D9F8001051F8040BC9F8001020B94FF0F9
:1005E000FF340FF608208EE60D9AD317C0E90023DA
:1005F000E1E3D9F8001051F8040BC9F8001020B954
:100600004FF0FF340FF6E4107DE60D990170D2E350
:10061000D9F8001051F8040BC9F8001020B94FF0B8
:10062000FF340FF6C8106EE60D990160C3E3D9F8E8
:100630000020D21D22F00702C9F80020D2E90001F3
:100640000832C9F80020CDE90201C80F02D007988E
:100650002D210AE0BDF84000810702D507982B2123
:1006600003E0C00705D50798202112AA1154401CA9
:10067000079012A80799DDE9024543184BF02000C6
:100680006128059321AE0BD00E98002802D50620D4
:100690000E9005E001BF4BF02000672801210E916C
:1006A000DDE9020148004015401C0A460DD109034E
:1006B0000BD0ABF1610703201A2F089002D20FF67E
:1006C00048110DE00FF644110AE070B912030CD185
:1006D000ABF1610703201A2F08901CD30FF63411D9
:1006E0000322184600F014FD65E3DDE902016A46C5
:1006F00000F01AFDCDE902014BF02000612811D174
:10070000059830210170821CBBF1610F05920CBF6E
:100710007821582102E00FF6F801E1E741700798CF
:10072000801C0790DDE9020120F0000231F0004357
:1007300008BF002A02D10025002445E14BF0200823
:10074000B8F1610F40F095800E98002847BF212135
:100750000191401C0190019F7F1C204629460022E8
:100760000023DDE9024500F017FD00998DF8842093
:1007700038BF85F00045091F002F00910DF185005D
:1007800034DD0646204629460022002300F01EFDE7
:100790002BD21C2200F034FD04460D4600F0CEFDA5
:1007A000FF1F002F804609DD00F0E4FD02460B46E6
:1007B0002046294600F0A6FE04460D46F01D0721FE
:1007C000B8F1000F0CDD491E5EBF08F00F0200F803
:1007D000012D4FEA2818F3D502E0002200F8012D80
:1007E000491EFAD5C61D002FCCDC30460DF185011F
:1007F000401A019905468842C8BF0D46002D0DF1EB
:1008000085062FD4854206DA0DF18500415D082961
:10081000A8BF0F2000DA0020294621AA0A4400E0E0
:100820006D1E12F80139491E8342F9D00F2804D1F8
:100830000DF18500425C521C4254002904D50098F9
:10084000001D21AE6D1C0090681E0BD431180A7873
:100850003032D3B23A2BA4BF5A443A3A401E01F880
:100860000129F4D50E98002840F1AD80691E0E9143
:10087000A9E00099DFF8FC2647F29750414391FB2D
:10088000F2F2009225F00045C2F10702002A04DDD1
:100890002046294600F04AFB0BE052420020DFF8D8
:1008A000D81600F043FB02460B462046294600F0CE
:1008B0009BFE0446B8F1660F0E9806BF009F0A37EC
:1008C00006273F18142FC8BF142730208DF8840046
:1008D0000D460DF1850000E03046002F35DD06465F
:1008E0002046294600F0A4FF01460A4606F1080307
:1008F00004200A26B2FBF6F606EB860EA2EB4E02A9
:10090000303203F8012C0A22B6FBF2F202EB820E1F
:10091000A6EB4E063036401E03F8026DE9D1083FC3
:10092000002F03F10806D7DD084600F093FF0246CA
:100930000B462046294600F0E5FD0022DFF83C3654
:1009400000F096FF04460D46CAE70DF18501401AF6
:100950000DF1850604E00099491E401E0091761CA9
:1009600031783029F7D0B8F1660F02D10099491CCF
:1009700004E0B8F1650F0CBF012100210E9D4D1957
:10098000A842B8BF451E002D1DD4854204DA705D13
:100990003428C8BF392000DC30202946721E531885
:1009A00000E06D1E13F80149491E8442F9D0392830
:1009B00002D1705C401C7054002904D50098401C82
:1009C00016466D1C0090009C01F028F8406A0778DC
:1009D000DDF8388028B2002802DC01250FF23866E5
:1009E0004BF02000662808BF641C16D0672846D14B
:1009F00020B210F1040F48DB404546DA9DF8400074
:100A0000641C010703D428B24045D8BF804620B2F9
:100A1000B8EB000848BF4FF000080FFA84FBBBF1A9
:100A2000000F00F3B5800898411C08913022059909
:100A30000A54B8F1000F03DC9DF84000010704D50B
:100A40000898411C089105990F5418EB0B0FB8BF7B
:100A5000C8F1000424B260420B90A0442AB2904531
:100A6000B8BF4546059B08982DB209952A463146E0
:100A7000184400F04DFBA8EB05000C90D2E0BBF150
:100A8000610F17D14FF0700B19E028B2404504DA1E
:100A90009DF840100A0758BF8046B8F1010848BFCA
:100AA0004FF00008BBF1670F14BF4FF0450B4FF03C
:100AB000650B04E0BBF1410F08BF4FF0500B0898E5
:100AC000411C0891B8F1000F059916F8012B0A5442
:100AD00003DC9DF8400001071AD50898411C0891D5
:100AE000B8F1000F05990F5412DD6D1E28B2804534
:100AF0000598089BB8BF45462AB23146184400F015
:100B000007FB08992DB269180891A8EB05000B9016
:100B100005980899084421B2002980F800B003D450
:100B20002B224270821C04E02D2242700C46821C53
:100B3000644200212CAB20460AE004460A2094FBC4
:100B4000F0F000EB8005A4EB450403F8014B491CD1
:100B500000B20028F1DC012906DC4BF020006528FA
:100B600004BF302002F8010B00292CAB08D1302043
:100B700002F8010B06E0491E585C303002F8010B08
:100B80000029F8DC059908980844121A099249E0EE
:100B900028B221B288421CDA0598089B2AB2314655
:100BA000184400F0B5FA08992DB269180891ABEB1A
:100BB0000500B8F1000F0B9003DC9DF84000020720
:100BC00004D5059847540999491C0991CDF83080FE
:100BD00028E00598089B22B23146184400F098FAA4
:100BE00008982D1B5844B8F1000F089003DC9DF8BD
:100BF00040100A0703D5411C089105990F5428B2EB
:100C000080450598089BB8BF45462AB206EB0B0104
:100C1000184400F07DFA08982DB228180890A8EB27
:100C200005000B909DF8400000F01400102840F0E3
:100C3000C280079A08990B988A18099982180C980B
:100C40008A1882180F98824280F2B580821A0A921E
:100C5000B1E09DF84200622808D068280ED06A28CA
:100C600014D06C281FD0712810D01CE0D9F80010C7
:100C700051F8040BC9F80010C0B21AE0D9F80010FE
:100C800051F8040BC9F8001080B212E0D9F8002026
:100C9000D21D22F00702C9F80020D2E90001083273
:100CA000C9F8002006E0D9F8001051F8040BC9F883
:100CB00000100021CDE902019DF8400001075AD53E
:100CC000DDE90223002B08BF002A54D04BF020009E
:100CD000782850D1079812A930220A54401C431C8E
:100CE000079301F800B046E09DF84200622808D062
:100CF00068280ED06A2814D06C281FD0712810D014
:100D00001CE0D9F8001051F8040BC9F8001040B2EB
:100D10001AE0D9F8001051F8040BC9F8001000B21D
:100D200012E0D9F80020D21D22F00702C9F80020F5
:100D3000D2E900010832C9F8002006E0D9F8001015
:100D400051F8040BC9F80010C117CDE902010029C0
:100D500002D507982D210AE0BDF84000810702D591
:100D600007982B2103E0C00705D50798202112AA78
:100D70001154401C079012A807990144059102A83C
:100D8000594600F04DF816E001200790D9F8000010
:100D900050F8041BC9F800008DF848100BE025211D
:100DA0000122BBF1000F8DF84810079203D08DF897
:100DB00049B0022107910F9A07980A990C9C121AC0
:100DC0000898521A0B99121A0998521A121A9DF879
:100DD0004000141B41073FF5A9AA2020002C8DF8E4
:100DE00000007FF7A3AA309E2546FFF793BA4FF085
:100DF000FF3031B0BDE8F08FCBCCCC0C686A6C749E
:100E00007A4C00007072696E74665F733A2062619A
:100E10006420257320617267756D656E7400000033
:100E20002DE9FC4304466F29256908BF082605D033
:100E300041F02000782814BF0A2610263C27D4E968
:100E40000023642918BF69299046994605D1002BD3
:100E500003D5D8F1000869EB4909B9F1000F08BFC3
:100E6000B8F1000F0CD1206B50B9082E3AD194F88C
:100E70003800010736D530203B2785F83B0031E0AC
:100E80008DF80010404649463246F31700F0CAFD7F
:100E90003032D0B27F1E3A2801970EDAEA5540462A
:100EA00049463246F31700F0BDFD80465FEA01096E
:100EB00008BFB8F1000F05D108E09DF80000121836
:100EC000513AEBE7E068E9198842DBD3082E09D1F3
:100ED00094F83800010705D5E85D302802D07F1E60
:100EE0003020E855C7F13C02A261E919E160206BAE
:100EF000824208DA821A22624FF6EF70218F014097
:100F00002187BDE8F38300280ED594F8380000F05F
:100F10001400102808D1636B6169206A5B1A1B1AE0
:100F20009A1A002AC8BF2262BDE8F3832DE9D04394
:100F300006460F4614464FF00008DFF8449012E0D2
:100F4000E00707D542464B463046394600F090FC54
:100F500006460F464046494642464B4600F088FC4E
:100F6000641080468946002CEAD130463946BDE8F7
:100F7000D0830000A08601000000F03F84D7974195
:100F80000000244010B503460C461146A06898475F
:100F9000A06020B1E06A401CE062002010BD4FF06C
:100FA000FF3010BDF8B505460E4617461C4600201A
:100FB0005CB117F8011BB068A847B06030B1F06AA7
:100FC000401CF0620020641EF3D1F2BD4FF0FF30F0
:100FD000F2BD00007072696E74665F733A20256E10
:100FE00020646973616C6C6F776564007072696E00
:100FF00074663A2062616420256E20617267756DA7
:10100000656E7400000000006E616E004E414E007F
:10101000696E6600494E460030000EE00268436883
:10102000024408305FEAC37C44BF4B445B1E52F865
:1010300004CB43F804CB091FF9D150F8041B002955
:10104000ECD17047C9B202788A421AB11CBF10F8BD
:10105000012FF9E718BF002070470268531C036096
:101060001170704780B500B906A005490B681BB127
:1010700022220021984701E000F0ECFD222002BD71
:1010800030030020636F6E73747261696E74206840
:10109000616E646C65723A20626164206D65737381
:1010A0006167650000F1010310F8011B11B110F830
:1010B000011BFBE7C01A7047C9B2830706D0521E56
:1010C00022D310F8013B9942F7D11FE0083A13D31D
:1010D00002F1040241EA012141EA014150F8043BD6
:1010E000121F21BF4B40A3F1013C2CEA030C1CF062
:1010F000803FF3D0C9B2001F083210F8013B521EE6
:1011000028BF91EA030FF8D818BF0120401E70478E
:101110004AB1000011F8013B521E00F8013B1CBF10
:1011200011F8013BF8E7704710B5144600F002F8DB
:10113000226010BDC1F30A5343B14A0012F5001FEB
:1011400028D2A3F2FE32A1EB0251704750EA410CC3
:1011500020D001F0004C31EA0C01B1FA81F204BF59
:10116000B0FA80F3D2180B3AB2F120032CBF00FA88
:1011700003F1914041EA0C013EBFC2F1200C20FA7C
:101180000CF319439040524240F2FD33D21A01EB66
:10119000035170470022704741EA030C50EA4C0C9F
:1011A00052EA0C0C4FF4001C09D307D01CEB410F82
:1011B0009CBF1CEB430F8B4208BF824270471CEB65
:1011C000430FFBD8994208BF9042704741EA030C95
:1011D00050EA4C0C52EA0C0C4FF4001C09D307D017
:1011E0001CEB410F9CBF1CEB430F994208BF904280
:1011F00070471CEB410FFBD88B4208BF82427047FF
:10120000124254D440F2FF7C1CEA11530FD06345C4
:1012100031D09B1863453CBF01EB0251704701F090
:10122000004141EA0C510020AFF30080704750EAC2
:10123000410320D001F0004C91EA0C011CD0B1FA1E
:1012400081F30B3B9A420DD9D21A994051EA0C0115
:10125000C3F1200C20FA0CFC61449840531C40F26E
:10126000FF7CD7E7914041EA0C01C2F1200C20FA43
:101270000CF3194390407047B0FA80F31533202BDC
:10128000E0D3202AEED3203A203B9A4209D9D21A41
:1012900000FA03F141EA0C010020531C40F2FF7CEC
:1012A000B8E700FA02F141EA0C010020704752420F
:1012B00040F2FF7C1CEA11530DD06345DBD0B2EB4A
:1012C000030C3CBFA1EB025170470CF1010221EA73
:1012D000035141F4801150EA410CCCD001F0004C94
:1012E000352A27DC30B481EA0C01B2F1200309DA97
:1012F000C2F12003044601FA03F5D0402843D1404F
:101300009C400CE0C3F12002450020FA03F418BF12
:1013100044F0010421FA03F091400C43002174F1E0
:10132000004550F1000051EB0C01244230BC7FF429
:101330007BAF70476146002076E72E00C1F30A5369
:1013400040F21E42D31A0CDDCA0283F3070342EABD
:10135000505242F00042DA4002EBE17282EAE17060
:1013600070476FEAE17203F2E13008B182F00040A9
:101370007047000010F0004160B148BF4042B0FA31
:1013800080F29040D21CC2F5846241EA025202EB24
:10139000D021400570470000841A71EB030604D287
:1013A0006E40001BB141121973414FF4001C1CEB3D
:1013B000410F34BF7CEB430683E00C0DA4EB1356C6
:1013C000362E00F37C80012E45EAC32341DC43EA3C
:1013D000525312BFD20292025B08240545EAC12192
:1013E00041EA5051D2EBC020994125D407D1B0FA3F
:1013F00080F610FA06F162D00020203608E0B1FA3B
:1014000081F6B140C6F1200220FA02F21143B04049
:101410004FEAF474B4EB465434F001064FEA740416
:101420000AD8D6F50016760D04F00044F04061FAB3
:1014300006F25040F1404840C00A40EA415021F0D5
:10144000004128BF5FEA500550F1000044EBD12174
:1014500035E0DB0A45EAC121C90AB6F120050EDDF7
:1014600042EA0242120CC5F1200603FA06F6EB40EE
:1014700042EA06056D42984161F100010DE062FA11
:1014800006F5F240554063FA06FC82EA0C02F3408E
:101490005A406D42904161EB030111F4801F05D168
:1014A000641E620502D06D004041494121F4801163
:1014B000430875F1004350F1000041EB045170BC4A
:1014C00070471CEB410F15D223F0004352EA43064C
:1014D0000BD04FEA4C0CBCEB410F04D80C0D661E30
:1014E000342EB7DDEBE7801A994150EA410608BF78
:1014F0000021E4E708BF1CEB430F28BF6FF0000199
:10150000DDE7000070B491EA030F4FF000457FF56E
:1015100043AF6B40841A71EB030603D2001BB14149
:10152000121973414FF4001C1CEB410F34BF7CEBCC
:10153000430442E00C0DA4EB1356352E4FDC45EA74
:10154000C323DB0A45EAC121C912B6F120050DDD2E
:1015500063FA05F6EB4086EA0305124218BF45F030
:101560000105C01851F100010CD213E062FA06F532
:10157000F2405540F3415A40B340F3405A4080187E
:10158000594107D349085FEA30005FEA350528BFB3
:1015900045F0010501F58011420875F1004250F156
:1015A000000041EB04514E0016F5001F70BC38BF1F
:1015B00070470020090D090570471CEB410F10D240
:1015C00052EA43060BD0BCEB410F05D80C0DAB43E0
:1015D000661E342EB6DD02E0AB438018594170BC64
:1015E000704770BC70470000F0B540F2FF7581EAAB
:1015F000030C0CF0004C15EA11541DBF15EA1357EB
:10160000AC42AF42E5E0BC41C1F31301C3F31303A5
:10161000801A994143F4801304D2641E0018494192
:1016200080185941C90241EA5051B1FBF3F603FB5E
:101630001611A2FB0675D7EBC020A94102D2761E77
:1016400080185941C90241EA5051B1FBF3FE03FB36
:101650001E11A2FB0E75D7EBC020A94103D2AEF13B
:10166000010E80185941890241EA9051760546EAF7
:101670008E2EB1FBF3F603FB1611A2FB0675D7EB1A
:101680008020A94102D2761E80185941C90241EA40
:1016900050514EEA060EB1FBF3F603FB1611A2FB06
:1016A0000675D7EBC020A94102D2761E8018594199
:1016B000C90241EA5051B1FBF3F703FB1711A2FB3A
:1016C0000735D3EBC020A94167F100070CBF0042EA
:1016D00047F0010766F3D5274FEA1E31B80814F525
:1016E000806412DDBD0775F1004250EB0E5051EBE6
:1016F000045111F5801F5CBF41EA0C01F0BD4CF0B4
:101700007F6141F0E0410020F0BDBD076D0840EA77
:101710000E5041F48011D4F10104B4F120060ADA2C
:10172000C4F120060200E04001FA06F3E14018434C
:10173000B24015430EE0342C13DCC6F1200445EA18
:1017400040056D0820FA06F2154321FA06F0A14083
:101750000D43002175F1004250F1000051EB0C01E6
:10176000F0BD00205FEA0C01F0BDCFB992185B41DB
:10177000B3FA83F704BFB2FA82F6BF190B3FB7F191
:1017800020062FBF02FA06F3BB40C7F1200622FA5B
:1017900006F638BF3343BA401CB1E419641E33E780
:1017A0007F4231F00041B1FA81F404BFB0FA80F613
:1017B000A4190B3CB4F120062FBF00FA06F1A1409A
:1017C000C4F1200620FA06F638BF3143A0403C1B86
:1017D0001AE7AC421ABF05EA1357AF4212E050EACB
:1017E00041061CBF52EA4306BFE750EA41073046B4
:1017F00061461CBF41EA0551F0BD52EA430C08BFE7
:10180000C143F0BD00204FF4001616EB410F98BF06
:1018100016EB430F08BF16EB410F24BFC14305E091
:1018200016EB430F0CBF61464CEA0551F0BD0000BA
:10183000400D40F21E4C40EAC120BCEB115C40F070
:10184000004003D48CF30701C84070476FEAE17091
:101850007047000050B1B0FA80F18840C91CC1F552
:101860008461090501EBD0214005704701467047AE
:1018700030B540F2FF7C1CEA11541DBF1CEA135521
:10188000644565453FE0641981EA030C6FF35F53DB
:101890000CF0004C43F48013C90241F0004141EACE
:1018A000505EC5021100A5FB020200284FF00000A7
:1018B000EEFB01204FF00001E3FB052118BF42F0D1
:1018C0000102401800214941E3FB0E01A4F58064A8
:1018D0000D0302D292184041494154F1010470DDD8
:1018E000450872F1004250F1000051EB0451A1F59E
:1018F000801102D441EA0C0130BD40F2FF7E4CEA77
:101900000E51002030BD0CEA1355644518BF6545E3
:1019100081EA030C0CF0004C41D050EA410E1CBF90
:1019200052EA430E02E06146002030BD24422C44BE
:101930001BD15FEA050EF6D0090302BF0146002065
:10194000AEF1140EB1FA81F5AEEB050401FA05FE15
:101950000C35C5F1200100FA05F5C8404EEA000E2D
:101960006FF35F5343F480139CE733F00043B3FA03
:1019700083F504BFB2FA82FE75440B3D641BB5F1DA
:10198000200E2FBF02FA0EF3AB40C5F1200E22FA53
:101990000EFE38BF43EA0E03AA40641C7CE750EAFF
:1019A000410E14BF52EA430E6FF000014FF40015D0
:1019B00015EB430F8EBF194615EB410F9DE7B4D8C9
:1019C00030BDD4F10104B4F120050FDAC4F12005D3
:1019D000520828BF42F0010210FA05FE01FA05F58F
:1019E0007244E2BFE0402843E1400FE0352C9ADC2E
:1019F000C5F1200452EA400220FA05F218BF42F075
:101A0000010231FA05F0A1400A43002172F10042BF
:101A100050F1000051EB0C0130BD00000048704750
:101A200010000020BBBBE1B1B2F5803F80F07E80AA
:101A3000022A1ED98C46B1FBF2F102FB11C31B0432
:101A400043EA1043B3FBF2FC02FB1C3380B240EAD2
:101A50000343B3FBF2F002FB103240EA0C400023D8
:101A60007047022A05D98446B0FBF2F002FB10C28F
:101A700070474AB105D100F0010249085FEA300021
:101A8000704700220023704700F0E8B80B00020006
:101A9000002100207047904271EB030CF6D3B3F5A0
:101AA000803F2FD2F0B5B3FA83F7B1FA81F4A7F1F2
:101AB0000F0E3D1B5340CEF1200602FA0EF2F34109
:101AC0005340B5F10F0746D80F3C2C444140C4F1B8
:101AD0002006A040F1414140B1FBF3F603FB161193
:101AE000A2FB0645001BA94102D2761E801859416F
:101AF00080EA010221FA0EF362FA0EF200215A4046
:101B00003046F0BD30B4B1FBF3FC03FB1C11A2FB6B
:101B10000C45001BA94103D2ACF1010C80185941BE
:101B200030BC02460B46604600217047B2F1807F10
:101B300065D3F0B5B2FA82F7B1FA81F4C7F10F06B6
:101B40003D1B22FA06F307F1110EF24120355A40EF
:101B5000B5F10F07B8D94140C4F12006A040F141CA
:101B60004140B1FBF3FC03FB1C11A2FB0C45001B25
:101B7000A94103D2BCF1010C801859410F2F12D397
:101B80000F3FC90341EA5041B1FBF3F603FB1611C5
:101B9000A2FB0645D4EBC030A94102D2761E8018C4
:101BA000594146EACC3C07B34140C7F12006B84052
:101BB000F1414140B1FBF3F603FB1611A2FB0645D0
:101BC000001BA94102D2761E8018594180EA010209
:101BD00021FA0EF3C7F1200462FA0EF20CFA07F0B4
:101BE0005A402CFA04F13043F0BD80EA010221FA98
:101BF0000EF3002162FA0EF260465A40F0BD8C46A8
:101C0000B1FBF2F102FB11C31B0243EA1063B3FB09
:101C1000F2FC02FB1C331B024CEA002043EA106377
:101C2000B3FBF2FC02FB1C331B024CEA002043EA2C
:101C30001063B3FBF2FC02FB1C331B024CEA0020D6
:101C400043EA1063B3FBF2FC02FB1C324CEA0020B7
:101C500000237047012000F003B800007047000027
:101C600080B5AFF30080024A11001820ABBEFBE73D
:101C70002600020038B5040001D1012032BD00F079
:101C800019F808B900F01AF800F01DF800F025F86E
:101C9000FFE7416100F001F832BD2068C16841F4FE
:101CA0000051C1600020686020216970A970002186
:101CB0006163704704F1400568787047002129701E
:101CC000204600F047BB242068702068C16821F4DA
:101CD0000051C160204600F0D9BA2068016921F4A2
:101CE000904101612068416921F02A0170472DE986
:101CF000FC4106460D4696F84100202814461F4632
:101D000040D10DB1200001D101203CE000207064E1
:101D1000212186F8411000F09DFBB4848046F484B4
:101D200000F033F804BF306900281ABF2C460025A4
:101D3000002412E000228021304600F0B3F9E0B91F
:101D40003068002C12BF14F8011B35F8021BC1F3D8
:101D500008014160F08C411EF1844346F08C0097ED
:101D60000028E7D100224021304600F09BF920B93D
:101D7000202086F84100002005E0202086F8410060
:101D8000032000E00220BDE8F681B068B0F5805F76
:101D9000704710B500F130039C7C202C0AD109B1AA
:101DA000140001D1012010BD00241C60BDE81040CA
:101DB00000F0B4B9022010BD216801F1140252E80C
:101DC000001F206800F1140321F0400143E80010D7
:101DD00000287047F8B5044626683568F7687369C7
:101DE00015F00F0205F0200107F0200007D10029AF
:101DF00018BF00285DD02046BDE8F240DEE1DA07DA
:101E000002D417F4907F54D0EA0705D5FE0503D518
:101E1000626C42F0010262646A0705D5DE0703D5F1
:101E2000626C42F002026264AA0705D5DE0703D5A0
:101E3000626C42F0040262642A0706D508B9DA0728
:101E400003D5636C43F008036364626C002A2FD0EF
:101E500000291EBF0028204600F0B0F92068406924
:101E6000616C0A0701D440061DD5204600F07FF9B9
:101E700020684169480611D5FFF79EFFFCD1E06B51
:101E800060B10FF22D314163E06B00F00EFB0028D2
:101E90000ED0E06B416BBDE8F44008472046BDE83A
:101EA000F24000F05DBB204600F05AFB0020606469
:101EB000F1BD206B012804F1410340F09180E80658
:101EC00000D5F90640F18C80002200923168009123
:101ED000226850680090009920684269500642D5F7
:101EE000E16B0868406880B20028E1D0A28D904282
:101EF000DEDAE085886920282DD0216801F10C0008
:101F000050E8001F226802F10C0521F4807145E8B9
:101F100000100028F1D100F0A0F8490800F11405E4
:101F2000490045E800100028F5D100F096F800F1CE
:101F3000140521F0400145E800100028F5D12020CB
:101F400058700021216300F08EF800F002F9FAD1F8
:101F5000E06B00F085FA02206063A18DE08D091A24
:101F600089B2204638E0A08DE18D411AE08D00282D
:101F70001CBF88B200286FD02246106800F10C0404
:101F800054E8004F00F10C0624F4907446E8004039
:101F90000028F2D1106800F1140454E8004F6408DE
:101FA00000F11406640046E800400028F2D1202029
:101FB000587000231363106800F10C0353E8003FCE
:101FC00000F10C0523F0100345E800300028F2D1A1
:101FD0000220506389B21046BDE8F44000F0C1BA57
:101FE00028062AD5390628D51878212834D1A068A2
:101FF000B0F5805F04BF2069002808D1206A0188FD
:10200000C1F308017160206A811C216205E0206A29
:10201000411C2162226800785060E08C401EE08400
:1020200080B2C8B92068C16821F08001C160206811
:10203000C16841F04001C160F1BD68060CD5790668
:102040000AD5F16821F04001F16020462021197085
:10205000BDE8F24000F086BAF1BD206800F114013D
:1020600051E8001F7047206800F10C0151E8001F83
:1020700000F10C037047026802F10C0151E8002FD7
:10208000036803F10C047047016801F1140252E87F
:10209000002F520801F11404520044E800210029E5
:1020A000F2D170472DE9FC41089C05460E4690464A
:1020B0001F46286801683140B1420CBF0120002052
:1020C000404529D114F1010FF3D000F0C3F9C01B32
:1020D000844200D314B90320BDE8F6812968C8689A
:1020E0004207E6D5802E18BF402EE2D00A681307BB
:1020F000DFD5002000902A6813680093496800919A
:102100000098284600F033F805F1400008214160AE
:10211000002202700120DFE70020DDE78162828576
:10212000C28500214164222280F84220016921B148
:102130000168CA6842F48072CA6001684A6942F064
:1021400001024A610068C16841F02001C1600020BD
:10215000704721F0100143E8001000287047016823
:1021600001F10C0252E8002F01F10C04704710B588
:10217000FFF7F5FF22F4907200F015F8F8D1FFF7A1
:1021800083FF016B012906D1FFF775FF22F01002D2
:1021900000F009F8F8D1202180F8421000220263F3
:1021A00010BD22F4807244E800210029704700002D
:1021B000406A0021C185C18400F0D2B91CB590F8F5
:1021C0004210222952D18168826AB1F5805F0AD11A
:1021D000016969B903685968C1F308011180826A0D
:1021E000911C81620FE0002904BF0169002902D11E
:1021F0000368596803E00168496801F07F011170C4
:10220000816A4A1C8262C18D491EC18589B259BB4F
:102210000168CA6822F02002CA600168CA6822F414
:102220008072CA6001684A69520852004A612021DE
:1022300080F8421000224263016B012912D102632F
:1022400000F016F802681168CB0607D50024009448
:1022500012680092036859680091009A818D00F01D
:1022600080F901E000F0C8F9002016BD022016BD7B
:10227000016801F10C0252E8002F01F10C0422F078
:10228000100244E800210029F2D1704710B504463D
:1022900022681169E06821F4405101431161D3685B
:1022A0001949A0680B402169034360690B4303434C
:1022B000D3605169A06921F4407101435161134910
:1022C0008A4202D100F0FDFB01E000F0F2FB6268FF
:1022D000192148439200B0FBF2F16423B1FBF3F201
:1022E0006FF0630000FB021109013231B1FBF3F022
:1022F00000F0F00101EB0211226800F00F0040181D
:10230000906010BD00000000F3E9FFFF00380140BD
:1023100080B54948494900F00BF800B116E001BD0D
:1023200080B54748474900F003F800B10EE001BD11
:1023300001604FF4614200230C2142608360C3605E
:10234000036141618361C361FFF794BCBDE8014053
:1023500000F000BC30B585B004461022002168466C
:1023600000F0FAFB2168354A374891424FF4806407
:102370002DD10168354D41F480410160026802F4BD
:10238000804204920499026842F0040202604FF411
:102390000071006800F0040004900222049800918B
:1023A0000192032103912846694600F0DFFB0021DA
:1023B00001910122029200946946284600F0D6FB62
:1023C00000220021252000F0E3FC25202FE01D4AFB
:1023D00091422ED1416841F480214160416801F46D
:1023E000802104910499026842F0080202600222EE
:1023F000036803F0080304930499009403210391F4
:1024000001926946124C204600F0B0FB4FF4006088
:10241000002100900191012202926946204600F0BD
:10242000A5FB00220021272000F0B2FC272000F0AD
:10243000CCFC05B030BD0000140200200038014083
:102440005C020020004800401810024000080140D3
:10245000000C014001484068704700BF00000020A8
:1024600010B590F82110022900F1380206D004239B
:102470001360002180F82010012010BD01680B6856
:1024800023F00E030B60012301680C6864086400EC
:102490000C60916852688B405360012180F82110D4
:1024A000002280F82020002010BD38B590F82120AF
:1024B0000024022A00F1340103D0042048600124E2
:1024C0003EE00268136823F00E0313600268DFF831
:1024D000743015686D086D00156002689A4208BF77
:1024E000012222D0DFF860309A4208BF10221CD0AF
:1024F000DFF858309A4208BF4FF4807215D0DFF8E9
:1025000050309A4208BF4FF480520ED0DFF844306A
:102510009A4208BF4FF4803207D0DFF83C309A422D
:102520000CBF4FF480124FF08072DFF830301A6029
:10253000012280F8212080F82040096801B18847F5
:10254000204632BD080002401C000240300002401C
:1025500044000240580002406C0002400400024067
:10256000704770477047000010B502212B4800F0FB
:10257000BDFB002802BF2A480178012910D100F0D4
:1025800084FC2848284C01780A0603D5262000F050
:1025900061FC2070254801788A0744BF01206070E3
:1025A00010BD234900680A68904200D0704738B5D2
:1025B0002048214C0188491C018060681F49401C4B
:1025C00060600878C20716D420881D4D411CB0F504
:1025D000617F218004DB00228021284600F08CFBF3
:1025E0002288B2F57A7F06DB01228021284600F09E
:1025F00083FB0020208031BD00681249884203D14E
:1026000001221149114805E01149884204D10122F3
:1026100010491148FFF7BDBB70470000000C014096
:102620003803002037030020E50200203603002095
:1026300084010020340300201C0300202403002018
:102640000008014000380140290300201402002046
:10265000004800402A0300205C0200202DE9F843D6
:10266000040016D02078DFF87064C10713D57068B5
:1026700000F00C00042807D0706800F00C00082857
:1026800041D17068C1033ED53068810303D56068CD
:10269000002800F064812078DFF84C74810719D598
:1026A000706810F00C0F07D0706800F00C0008285C
:1026B00061D17068C1035ED43068810703D5206999
:1026C000012840F04C813168606921F0F80141EA4D
:1026D000C00131602178080740F18180A069DFF8EE
:1026E0000C14002800F0A68001220A60FFF7B2FE59
:1026F0000546706A810763D4FFF7ACFE401B0228D1
:10270000F7D903202EE16068B0F5803F04D130682E
:1027100040F48030306014E008B930680AE0B0F569
:10272000A02F306806D140F480203060316841F439
:10273000803105E020F480303060316821F4802160
:102740003160606858B1FFF785FE05463068810347
:10275000A1D4FFF77FFE401B6528F7D3D1E7FFF731
:1027600079FE05463068810395D5FFF773FE401B5F
:102770006528F7D3C5E72069A8B101213960FFF7C3
:1027800069FE05463068810705D4FFF763FE401BEC
:102790000228F7D9B5E73068616920F0F80040EA0F
:1027A000C100306096E73860FFF754FE0546316897
:1027B00088078FD5FFF74EFE401B0228F7D9A0E708
:1027C000DFF818030168C9084FF47A72B1FBF2F21E
:1027D000009200BF0098411E00280091F9D1207896
:1027E00041076ED5F0690025C10009D4F06940F0B9
:1027F0008050F0610125F06900F080500090009851
:10280000DFF8EC82D8F80000C10520D4D8F8000029
:1028100040F48070C8F80000FFF71CFE8146D8F82D
:102820000000C10513D4FFF715FEA0EB09006528D1
:10283000F5D366E70860FFF70DFE0546706A81076D
:10284000CDD5FFF707FE401B0228F7D959E7E0680E
:10285000012808D008B9306A09E00528306A06D195
:1028600040F004003062306A40F0010005E04008AA
:1028700040003062306A20F00400306241F2893852
:10288000E06860B1FFF7E6FD8146306A810713D446
:10289000FFF7E0FDA0EB09004045F6D331E7FFF775
:1028A000D9FD8146306A810706D5FFF7D3FDA0EB3D
:1028B00009004045F6D324E71DB1F06920F08050AF
:1028C000F061E06900284CD0716801F00C01082922
:1028D00038D002282AD100F047F805463068810137
:1028E00005D5FFF7B7FD401B0228F7D909E7206A95
:1028F000B0F5803F05D17168A06821F40031014333
:1029000071607268206A616A22F4741202430A4399
:102910007260012000F029F804463068810120D45B
:10292000FFF798FD001B0228F7D9EAE600F01CF833
:1029300004463068810114D5FFF78CFD001B022886
:10294000F7D9DEE601280AD07068226A00F48031E7
:10295000914202BF00F47010616A884201D00120E8
:1029600000E00020BDE8F28300203866FFF772BD6A
:102970002DE9F041040088464ED05E4E00F077F815
:1029800002D200F06FF847D12068534D810712D56D
:10299000400703D5696841F4E06169602078010768
:1029A00003D5686840F4605068606968A06821F0E9
:1029B000F001014369602178C80725D560680128C6
:1029C00002D129688A0303E00228296802D18A011A
:1029D00002D421E08A071FD56968890840EA81008E
:1029E0006860FFF737FD07466868616800F00C0013
:1029F000B0EB810F08D0FFF72DFDC01B41F28931EC
:102A00008842F1D303202BE0306800F007008045B6
:102A100004D200F027F801D0012021E020784107FE
:102A200005D56A68E06822F4E06202436A602178B2
:102A3000080706D56968206921F4605141EAC001A0
:102A4000696000F019F86A682B49244BC2F303123D
:102A5000895CC84018602348006800F00DFB002026
:102A6000BDE8F0813168C90848EAC10131603068C9
:102A700000F0070040457047204919480A6802F0F5
:102A80000C03082B00D0704710B500BF1EA4C2F382
:102A90008343D203E35C08D5096858431EA3C1F3FE
:102AA00040415A5CB0FBF2F010BD1846144948434F
:102AB00010BD0A48114A006813681249C3F3022284
:102AC00006E006480D4A006813680E49C3F3C222A7
:102AD000895CC84070470000001002400C000020D4
:102AE00000127A00080000200000424280044242A6
:102AF0000070004000200240C04500080410024061
:102B000000093D00E0450008020304050607080926
:102B10000A0B0C0D0E0F10100102000080B500F022
:102B200067FB00F0A5FB00F0D5FC00F0E1FC0748D6
:102B3000002101600648016000F080FB00F0E0FB2E
:102B400000F049FC00F055FCF6E7000024030020EB
:102B50002C03002072B6FEE710B5044610460A4664
:102B60000146204600F0C6FC204610BD2DE9F8477E
:102B70004FF0000E00246B4A6B4BDFF8B0814FF032
:102B80000F0982460CE017683840106006E0556077
:102B90004D68ED03F7D51068074317600EF1010E7D
:102BA0000F6837FA0EF000F09F80012000FA0EF651
:102BB0003740B742F2D1486838B301281AD002280A
:102BC0001DD003282ED0112816D012281AD0584D07
:102BD000A8421CBF574DA84217D0574DA8421CBF52
:102BE000564DA84211D0564DA8421CBF554DA84283
:102BF0000BD018E0CC6816E0CC68241D13E0CC683C
:102C0000083410E0CC680C340DE0886808B904245E
:102C100009E0012819BF0824CAF814600824CAF87A
:102C2000106000E00024B7F5807F03D250464FEAE1
:102C30008E0C05E0AEF108050AF104004FEA850CA0
:102C4000056809FA0CF6B54304FA0CF6354305603D
:102C50004868C000A2D5D8F8000040F00100C8F8CC
:102C60000000D8F8005005F0010500954FEA8E05E8
:102C700000984FEA9E0053F8206005F00C0C09FA0A
:102C80000CF526EA0505304EB24508BF00260ED0E9
:102C90002E4EB24508BF012609D02D4EB24508BFC1
:102CA000022604D02B4EB2450CBF0326042606FA9A
:102CB0000CF6354343F82050F8434D68ED02956813
:102CC0004CBF3D43054095604D68AD02D5684CBF93
:102CD0003D430540D5604D685668AD034CBF47EA9B
:102CE000060500EA060552E7BDE8F187806808405E
:102CF00018BF0120C0B2704702B9090401617047D2
:102D0000C26801EA0203914341EA0341016170474D
:102D1000114A136803421CBF1060FFF725BC7047BF
:102D200000000000000401400800014018100240AB
:102D300000001110000012100000211000002210ED
:102D4000000031100000321000080140000C01406A
:102D50000010014000140140140401400901020068
:102D600002D4294881547047284B02F00F021A44BC
:102D700002F8041C7047264B19684FF6FF02000248
:102D8000114000F4E060084322490843186070478E
:102D900070B51F4B1C68C4F302230124C3F107055F
:102DA000052D2EBF0F2504FA05F56D1E1E1D072EDD
:102DB00034BF0023DB1E2940994004FA03F3BDE829
:102DC00070405B1E1A401143C8E7010007D401227E
:102DD00000F01F01104B8A40400943F82020704743
:102DE00010B5401EB0F1807F01D3012010BD0B4C07
:102DF00060600F214FF0FF30FFF7B0FF0021A160AE
:102E000007202060002010BD00E400E018ED00E085
:102E10000CED00E00000FA0500E100E010E000E049
:102E20001CB540F080008DF800008DF801100022E4
:102E30006E4C00F00AF80423022269466C4800F048
:102E4000E2FB00F001F813BD01224FF4805120464F
:102E5000FFF752BF1CB501A900220A608DF80400DB
:102E60008DF805004FF48051604C00F082F8042288
:102E7000009202230DF1060201A95D4800F082FCD8
:102E8000FFF7E2FF9DF8070016BD10B503205B4C6D
:102E9000FFF7E0FF20700420FFF7DCFF607010BD3B
:102EA00038B50446DFF858515EA12246284600F0A6
:102EB000EBFD544A1070284600F006FE2146BDE89E
:102EC00034407920ACE780B54A49012000F010F881
:102ED00000210820FFF7A4FF02210520FFF7A0FF33
:102EE00080210620FFF79CFFBDE80440052107E094
:102EF00008700321082093E73E4900200870012153
:102F000007208DE7F8B505460E4600BF4BA03A4CAA
:102F100000F0DAFDFFF7F0FF002200F029F84B2067
:102F2000FFF798FF30700027FFF7AFFF05E07F2025
:102F3000FFF790FFF9B27F1C6854F8B232789042E4
:102F4000F5D3314BDFF8B87093F8413040A13846E3
:102F500000F09AFD2B490870384600F0B5FD317835
:102F6000284600F0CEFD012200F002F83078F2BDD4
:102F700040212046FFF7C0BE70B5A0B03AA01B4D5F
:102F8000224E00F0A1FD00BF21A000F09DFD012216
:102F900001212846FFF7B0FE022000F0D7FD0022F5
:102FA00001212846FFF7A8FE1E2000F0CFFDFFF705
:102FB0006CFF00240025701990F83810705DFFF741
:102FC0002FFF6D1C382DF6D3FFF796FFE0B2FFF709
:102FD00041FFE2B2641C0DF80200E0B28028F5DB8C
:102FE0008021684600F08DFD20B070BD000C0140CE
:102FF0002C01002038030020000801403603002087
:10300000480000202B030020A4020020DC4300081D
:103010005369343433325F436F6E66696746726555
:10302000670A00005369343433325F536574436870
:10303000616E6E656C3D25640A000000536934348E
:1030400033325F52656365697665446174610A0075
:103050004C656E6774683D25642C2052535349209B
:103060003D202564000000005369343433325F4949
:103070006E69740A0000000038B50D4D0D4B2A78BA
:1030800004464FF47A711868B1FBF2F2B0FBF2F02B
:10309000FFF7A6FE50B9102C08D2002221464FF0AF
:1030A000FF30FFF775FEAC60002032BD012032BD5D
:1030B000000000200C00002000B58FB0282105A8DA
:1030C00000F058FD1421684600F054FD09210591D7
:1030D00001234FF48031069109930B930D91002247
:1030E00002234FF4801107920C930E9105A8FFF76D
:1030F000B5FA08B1FFF72EFD022101910F204FF420
:10310000806100900022039102920492012168469E
:10311000FFF72EFC08B1FFF71DFD0FB000BD10B585
:10312000484C6C21204600F025FD4748C4F80200B9
:10313000C4F80B0060614FF400614FF4004021803F
:1031400060824FF480524148A4F809200821C4F855
:103150001D00A4F81B10C4F82600C4F82F00A063BB
:10316000C4F84100C4F84A00C4F8530010222021DA
:103170004FF40070A284A4F82D10A4F8510040224E
:1031800080213348E286A4F83F10E065C4F865006A
:103190004FF480724FF400514FF48040A4F848205F
:1031A000A4F85A10A4F8630010BD70B5264D284845
:1031B000284E4FF40041FFF799FD0121C4432846F2
:1031C000FFF794FDC043A400400004F0040400F0A5
:1031D0000200044302212846FFF788FDC04300F0A7
:1031E00001000443B47034707470BDE8704096E719
:1031F00010B500F0C3FCFFF75FFF00F0D1FC00F05A
:1032000089FD00F0F5FD00F009FE00F075FDFFF707
:103210007FF8FFF785F8104C104801222146FEF791
:10322000B8FD0122611C0E48FEF7B3FD0D4800F009
:1032300060FEBDE810400C4800F05BBE0B4801F09A
:103240003AB80000C000002000080140000C014016
:103250000010014014030020290300201402002064
:103260005C02002084010020CC0100200803002023
:10327000F8B56C4D287840F00100287006248021B4
:103280006748FFF73DFD642000F060FCFFF7D6FFC4
:10329000641EF4D1FFF789FF644F654E97F8002054
:1032A00068A1644C00F094F800F026F8012138463B
:1032B00000F027FC97F8012068A100F089F800F0E1
:1032C0001BF80121781C00F01CFCBA7869A100F001
:1032D0007FF800F011F80121B81C00F012FC5248F0
:1032E0006AA1D0F8162000F073F800F005F82878ED
:1032F00000F0FE002870F1BD2070304600F0E4BB05
:10330000F8B54D4C94F8421001295DD10FF2A81088
:1033100065A500F0D9FB2146601C00F0E7F826788F
:1033200000F053F83146601C00F0EBFBA1788E42B0
:1033300043D1A019F21E10F8013C92B20121601C89
:1033400000F0CDFF012804BF6078022835D1A15DCF
:10335000032901BF35480178627991422DD100F0EF
:1033600034F820780A2828D1E579A079DFF8C06000
:1033700055A12D0405EB0065207A05EB00252A46B2
:1033800000F026F82B490870FFF7B7FF00202B4903
:1033900000274300C3F11E0325FA03F606F00306D7
:1033A000012E00EBC00203D1CE1D0123B35401E076
:1033B000CB1D9F54401C0C28EBDB00F099F800203B
:1033C0001F4A84F842001060F1BD284600F07CBB23
:1033D000304600F059BB10B5194C206844F6253131
:1033E000884205D300F076F800F082F800202060D3
:1033F00010BD10B50024114804EBC4014318D8795E
:10340000012808BF002201D028B901221988D3F869
:103410000200FFF771FC641C0C2CECDB10BD0000FB
:103420000008014024030020E802002014030020CB
:10343000480000202B030020A4020020C000002030
:1034400020030020416464726573732E75384D61EA
:1034500073746572203D2025640A00004164647223
:103460006573732E7538536C617665203D20256435
:103470000A000000416464726573732E75384675E6
:103480006C6C203D2025640A0000000042656163E9
:103490006F6E2E75333254696D6557616974203DC6
:1034A0002025640A00000000416E616C797A655243
:1034B000665265630A00000052665F52656350728F
:1034C0006F636573730A00004F7574203D20256C8F
:1034D000750A000080B5FFF74FFD03488078BDE80E
:1034E0000240FFF7DDBC000014030020FFF70ABD17
:1034F000FFF7E9BC62F30F2262F31F42401810F09D
:10350000030308D0C91A1FD3DB0748BF00F8012DF9
:1035100028BF20F8022D130030B414461546103988
:1035200028BF20E93C00FAD8490728BF20E90C0051
:1035300048BF40F8042D890028BF20F8022D48BF5D
:1035400000F8012D30BC7047C91818BF00F8012DD4
:10355000CB0728BF00F8012D7047000038B50400E4
:1035600001D1012032BD606A28B900F0FDF905D013
:103570000021E16102E00020206160610020A06282
:1035800004F15005687820B900212970204600F028
:1035900063FC0220687000F0F8F96068A168E268D6
:1035A00000F4827001F404410843217C02F40062BB
:1035B0001043227D01F002010843A16902F00102DB
:1035C0001043227F01F40071084394F8201002F0A8
:1035D00038021043A26A01F080010843216802F416
:1035E000005210430860A0692168000C00F004003C
:1035F00048602068C16921F40061C16100206860F1
:103600000121697032BD2DE9FC4106460C46154684
:103610009846FEF71FFF06F150077978012907D178
:10362000002C14BF002D012003D03978012901D1CD
:10363000022092E00121397003237B700021796020
:103640003463B586F586B163B187F18771643164FF
:10365000B368B3F5004F09D131680B6823F040031C
:103660000B6031680C6844F480440C6031680B686E
:103670005C0603D40B6843F040030B604446F168DA
:10368000B1F5006F71682DD1002918BF012D09D146
:10369000316B33680A88DA60316B8A1C3263F18ED1
:1036A0004A1EF286804608E0316B0A88C260306BA1
:1036B000811C3163F08E411EF186F08E00283CD0D3
:1036C000306881688A07EFD4FEF7C4FE00F047F83F
:1036D00005D314F1010FF0D000F04EF83DE0002CBE
:1036E000EBD1F9E7002918BF012D09D1316B3368FF
:1036F0000A781A73316B4A1C3263F18E4A1EF286C5
:10370000804608E0316B0A780273306B411C3163EC
:10371000F08E411EF186F08E78B1306881688A079C
:10372000F0D4FEF797FE00F01AF803D314F1010F5E
:10373000F1D0D1E7002CEED1CEE74246214630460B
:1037400000F083F908B120207860B06818B9002132
:1037500000F014F9009800F006F8BDE8F681A0EB3F
:103760000800A04270470121797000203870786805
:1037700000B10120C0B2704701207870002139707B
:10378000032070472DE9F84307460C4690469946BA
:10379000FEF760FE07F1500601257378012B07D074
:1037A0007968B1F5827F02BFB9680029042B0AD17C
:1037B000002C1CBFB8F1000FB9F1000F00F0BE8063
:1037C0003178012901D10220CCE035707378042BC7
:1037D0001CBF0521717000237360C7F83880A7F8FB
:1037E0003E90A7F83C903C63A7F83690A7F8349039
:1037F0003B647B6439680C68630603D40C6844F04E
:1038000040040C60F968089CB1F5006F796846D1F6
:10381000002918BFB9F1010F09D1396B3B680A883B
:10382000DA60396B8A1C3A63F98E4A1EFA86804642
:10383000F88E002804BFF88F002875D03968886892
:1038400082070ED5F88E002818BF002D09D0386BDE
:103850000288CA600025386B811C3963F88E411ECE
:10386000F98639688868C2070BD5F88F48B1C868EF
:10387000B96B08800125B86B821CBA63F88F411EB2
:10388000F987FEF7E7FDFFF76AFFD1D314F1010FC7
:10389000CED00120707000213170032062E0002939
:1038A00018BFB9F1010F09D1396B3B680A781A7357
:1038B000396B4A1C3A63F98E4A1EFA868046F88EA6
:1038C000002804BFF88F00282ED039688868820746
:1038D0000ED5F88E002818BF002D09D0386B02785D
:1038E0000A730025386B411C3963F88E411EF98636
:1038F00039688868C2070BD5F88F48B1C868B96BBA
:1039000008700125B86B421CBA63F88F411EF98715
:10391000FEF7A0FDFFF723FF03D314F1010FCED074
:10392000B7E7002CCBD1B4E742462146384600F039
:103930008CF828B12020706000213170012011E046
:10394000B86838B9002100913968CA68009289685E
:10395000009100980121717000203070706800B1F2
:103960000120C0B2BDE8F2836068B0F5827F704785
:103970002868016821F040010160704700913168BA
:10398000CA6800928968009170472068016821F038
:103990004001016070472DE9F843089C05460E463A
:1039A00090461F46FEF756FD381A2418FEF752FDC2
:1039B0008146344801684901090D6143009105E0E1
:1039C000009800B900240098401E00902868816883
:1039D0003140B1420CBF01200020404532D017F1E8
:1039E000010FF3D0FEF736FDA0EB0900A04201D293
:1039F000002CE5D12868416821F0E0014160686849
:103A0000B0F5827F08D1A868B0F5004F18BFB0F5B7
:103A1000806F01D1FFF7ACFFA86AB0F5005F09D154
:103A20002868016821F4005101602868026842F4A6
:103A30000052026005F15000012141700022027025
:103A4000032000E00020BDE8F2837CB50D46164659
:103A5000044600962B4601220221FFF79CFF38B94D
:103A600000962B46002280212046FFF794FF08B1E4
:103A700000F001F876BD606D40F020006065032025
:103A8000704700000C0000200CB430B583B00A462B
:103A900006A90291044600250194009502AB01A9F4
:103AA000084878441E30FCF721FB019A1570002865
:103AB0004EBF04460198041B204603B030BC5DF89D
:103AC0000CFB00BF97D5FFFF70B504461D4D0122CA
:103AD0004FF480712846FFF70FF9012000F036F807
:103AE0002046FDF7DFFA06462046FDF7DBFA82B2F4
:103AF00006F10A0300F022F8022000F027F8284619
:103B000015E070B504460D460E4E01224FF480714B
:103B10003046FFF7F1F8012000F018F805F10A032C
:103B20002A4600F00BF8022000F010F83046BDE8FD
:103B3000704000224FF48071FFF7DEB82146024842
:103B4000FEF7D5B8000801401402002038B504463D
:103B5000FEF780FC14F1010F054602D004490878F5
:103B60000419FEF777FC401BA042FAD331BD00BF19
:103B700000000020002200F0BDBB000080B5074817
:103B8000016841F0100101600320FFF7F4F80F20F5
:103B9000FFF772FA00F0C8FB002002BD00200240CF
:103BA000F0B585B0102200216846FEF7D5FF4648E3
:103BB000464C0168464E474F41F01001016049F6FE
:103BC000C015026802F0100204920499026842F0E3
:103BD00020020260036803F0200304930499026842
:103BE00042F004020260036803F0040304930499A2
:103BF000026842F0080202600122006800F008003A
:103C000004904FF4C04104982046FFF775F8012254
:103C100029463046FFF770F8012240F2F931384664
:103C2000FFF76AF801224FF480513846FFF764F835
:103C30004FF4C04100910122019200210291022221
:103C4000039269462046FEF791FF4FF4004000F0D2
:103C500045F82046FEF78AFF3F2000F03FF8304647
:103C6000FEF784FF012002210190002203910292BD
:103C7000009569463046FEF779FF012100910191D8
:103C800000F033F80220144900F029F83846FEF716
:103C90006DFF0122019202924FF4805100910322A4
:103CA00000F025F84FF47E7100910122019200216D
:103CB00000F01BF8002200210720FFF769F8072019
:103CC000FFF783F805B0F0BD181002400010014066
:103CD00000080140000C014000002110002100906C
:103CE00001910122029269467047029102220392D9
:103CF00069463846FEF73ABF10B586B000F03DF889
:103D000000F036F8364C4FF0804020602F2140F212
:103D1000E7300BE010B586B000F02FF800F028F87F
:103D2000304C314820602F2142F20F700022E060B9
:103D30006160A2602261A261204600F0CDF808B166
:103D4000FEF708FF4FF48050029002A9204600F0D1
:103D5000AFF908B1FEF7FEFE002100910191204667
:103D6000694600F003FB08B1FEF7F4FE06B010BD93
:103D7000082200216846FEF7EFBE1022002102A8AB
:103D8000FEF7EABE80B500681849B0F1804F0FD148
:103D9000086840F0010008600022096801F0010194
:103DA0000091002100981C20FEF7F2FF1C2011E07A
:103DB0000D4A904212D1086840F0020008600022CB
:103DC000096801F002010091002100981D20FEF712
:103DD000DFFF1D20BDE80240FEF7F7BF01BD000078
:103DE00084010020CC010020000400401C1002408F
:103DF00080B50848084906224FF49C730160426070
:103E0000836000F02DFA18B1BDE80140FEF7A2BEB4
:103E100001BD00BF080300200030004080B52A48E3
:103E20002A4901604FF4827208214260C161002377
:103E30004FF400720A218360C360036143618261B1
:103E4000036243628362C162FFF788FB18B1BDE879
:103E50000140FEF77FBE01BD18B585B004461022B3
:103E600000216846FEF778FE21681848814229D172
:103E70001748184C416841F480414160416801F4A1
:103E8000804104910499026842F0080202604FF4F4
:103E90002041006800F0080004900222049800917C
:103EA00001920321039120466946FEF75FFE4FF41D
:103EB0008040002100900191012202926946204633
:103EC000FEF754FE06B010BD2C0100200038004063
:103ED00018100240000C014038B5040001D1012047
:103EE00032BD00F047F818B900F040F9FFF74AFF7B
:103EF00029E090F83D10012901D0012070470221EE
:103F000080F83D100168CA6842F00102CA60016889
:103F1000DFF85820914218BFB1F1804F07D0DFF889
:103F2000502091421CBFDFF85430994205D1896876
:103F300001F00701062904D001680A6842F0010275
:103F40000A600020704702206870211D206800F080
:103F500011F90120A872A870E87028716871A87121
:103F6000E871287268726870002032BD002C014030
:103F70000004004004F13C056878704700080040E8
:103F800070B504462068C5680669B10714D5AA074C
:103F900012D56FF00201016101222277806910F0D1
:103FA000030F204602D000F013FA03E000F011FAEC
:103FB00000F07BF800202077700715D5690713D52E
:103FC00020686FF00402026102212177806910F4F9
:103FD000407F204602D000F0FBF903E000F0F9F941
:103FE00000F063F800202077300715D5290713D596
:103FF00020686FF00802026104212177C06910F087
:10400000030F204602D000F0E3F903E000F0E1F9ED
:1040100000F04BF800202077F00615D5E90613D5FF
:1040200020686FF01002026108212177C06910F446
:10403000407F204602D000F0CBF903E000F0C9F940
:1040400000F033F80020207706F0010105F00100B0
:10405000014206D020686FF0010101612046FEF7A1
:10406000A0FA300608D5290606D522686FF0800030
:104070001061204600F0AEF9700608D5690606D535
:1040800022686FF040001061204600F0A4F9B006ED
:104090000AD5A90608D522686FF0200010612046D5
:1040A000BDE8704000F098B970BD204600F095B9A9
:1040B00070B5064606F13C0500242878012801D198
:1040C000022070BD0120287002226A70DFF8100102
:1040D00032689368034093600868020018BF102894
:1040E00030D0202818BF30282CD0402826D0502887
:1040F00019D060281BD0702806D0B0F5805F27D07B
:10410000B0F5005F07D022E000F02BF8306881683E
:1041100041F0770105E000F024F83068816841F44F
:104120008041816014E000F018F850210BE0CA686B
:104130004968306800F06DF8602104E000F00DF887
:10414000402100E00146306800F075F800E00124ED
:104150000120687000F00AF870BDCA6849683068CC
:1041600048E0CB684A68896830686CE000212970B3
:104170002046704770B51B4E03681B4C1B4DB04268
:1041800018BFB0F1804F03D0A84218BFA04209D198
:104190004A6823F070031343B0421CBFB0F1804F54
:1041A000A84201D0A04203D1CA6823F4407313434C
:1041B0004A6923F0800313430360B0428B68C362F3
:1041C0000A68826202D10969094A116001234361C8
:1041D0000169CA0703D5016949084900016170BD39
:1041E0008800FFFF002C0140000800400004004050
:1041F000302C014010B5036A046A6408640004624C
:1042000023F00A03846924F0F00444EA0214846170
:1042100023E010B5036A046A24F01004046223F05A
:10422000A003846924F4704444EA0234846143EABC
:104230000113036210BD826822F07002114341F045
:1042400007018160704710B5846824F47F442143DE
:10425000114341EA0321816010BD1943016210BD81
:1042600038B5040001D1012032BD20684CF6CC41A4
:10427000016045F25552026063684360A168816045
:10428000FEF7E8F805462068C16811F0030F0DD06D
:10429000FEF7E0F8401B41F23D318842F3D320683D
:1042A000C16811F0030FEED0032032BD4AF6AA21F7
:1042B0000160002032BD00684AF6AA21016000209A
:1042C000704730B503460020002403E04D19641CFC
:1042D0005D5D6840A5B29542F8D3C0B230BD10B55F
:1042E0001C46FFF7EEFFA04201D1012010BD0020C7
:1042F00010BD000000B500BF13009646944610396B
:1043000028BFA0E80C50FAD85FEA417C28BF0CC057
:1043100048BF40F8042BC90728BF20F8022B48BF2C
:1043200000F8012B00BD00000E4881B0016841F08B
:1043300001010160026802F00102009200994268E6
:1043400042F080524260406800F080500090009837
:104350000548016821F0E06141F00071016001B0A1
:10436000704700BF181002400400014070B500F112
:104370003C031A78012A01D1022070BD01221A7073
:1043800002245C7005686E68AC680A6826F07006E6
:1043900016436E6002680B48824218BFB2F1804F2C
:1043A00005D0094882421CBF084DAA4204D1486882
:1043B00024F0800404439460012159700020187097
:1043C00070BD0000002C01400004004000080040C7
:1043D0007047704770477047704770470506070978
:1043E0000A0B0C0E1C1D2021222324252A2B2C2DE8
:1043F0002E30323334353A3B3C3D3F404142363734
:104400003839434445466D6E6F70717273747576BA
:10441000777A626900000152061215002D443202BB
:104420008F5C07FF2500283E298DFF06082200002B
:10443000000000000000646E646EFFFFFFFF1EA31B
:10444000D7202310000050FA003224780100000029
:10445000000000001000000000127A007213000833
:104460007213000872130008721300087213000818
:104470007213000872130008FFFFFFFFFFFFFFFF2A
:104480003A1300087213000872130008FFFFFFFFC1
:10449000FFFF0000FEE7FEE7FEE7FEE7FEE77047EE
:1044A0007047704700F018B80220FEF731BC06488C
:1044B000FFF766BD0548FFF763BD0548FDF78ABCF9
:1044C0000448FDF787BC000084010020CC010020D7
:1044D000140200205C02002002494A680878821811
:1044E0004A6070470000002030B4002512E050F808
:1044F000042BD30744BF4A44521E091F042942F823
:10450000045BFAD213468C0744BF15809B1CC90775
:1045100048BF1D7050F8041B0029E8D130BC70471B
:1045200010B5074979441831064C7C44163404E030
:104530000A68081D114488470146A142F8D110BD00
:104540000800000028000000A1FFFFFFF4020000A7
:104550004800002000000000C3CAFFFF4800000020
:10456000ECFEFFFF000000200000000000F00DF84E
:10457000002801D0FFF7D4FFAFF300800020AFF395
:104580000080FEF7CBFA00F002F80120704700F03F
:1045900001B8000007463846FDF762FBFBE7000064
:1045A0000548014603B4684680F30988AFF30080EC
:1045B000AFF30080FFF7DAFFA5EDF5FE70470000CE
:1045C00000000000000000000102030406070809C3
:1045D0000148804701480047BD450008A145000843
:1045E0000000000001020304FFF7FEBFFFF7FEBF5B
:1045F000FFF7FEBFFFF7FEBFFFF7FEBFFFF7FEBFEF
:10460000FFF7FEBFFFF7FEBFFFF7FEBFFFF7FEBFDE
:10461000FFF7FEBFFFF7FEBFFFF7FEBFFFF7FEBFCE
:10462000FFF7FEBFFFF7FEBFFFF7FEBFFFF7FEBFBE
:10463000FFF7FEBFFFF7FEBFFFF7FEBFFFF7FEBFAE
:10464000FFF7FEBFFFF7FEBFFFF7FEBFFFF7FEBF9E
:10465000FFF7FEBFFFF7FEBFFFF7FEBFFFF7FEBF8E
:10466000FFF7FEBFFFF7FEBFFFF7FEBFFFF7FEBF7E
:10467000FFF7FEBFFFF7FEBFFFF7FEBFFFF7FEBF6E
:04000005080045A109
:00000001FF
